S01B000048575F454D6265646465645379735F4272756E612E7333375B
S113000000000220B1030000DD030000DD03000056
S1130010DD030000DD030000DD030000DD0300005C
S1130020DD030000DD030000DD030000DD0300004C
S1130030DD030000DC030000DD030000DD0300003D
S1130040DD030000890C0000DD030000DD03000077
S1130050DD030000DD030000DD030000DD0300001C
S1130060DD030000DD030000DD030000510C00008F
S1130070DD030000DD030000DD030000DD030000FC
S1130080DD030000DD030000DD030000DD030000EC
S1130090DD030000DD030000DD030000DD030000DC
S11300A0DD030000DD030000DD030000DD030000CC
S11300B0DD030000DD030000DD030000DD030000BC
S11300C0DD030000DD030000DD030000DD030000AC
S11300D0DD030000DD030000DD03000010B5054C66
S11300E0237833B9044B13B10448AFF300800123E0
S11300F0237010BD78000020000000003C38000090
S113010008B5034B1BB103490348AFF3008008BD96
S1130110000000007C0000203C380000154B002B40
S113012008BF134B9D46A3F5803A00218B460F462A
S11301301348144A121A03F0A5F80F4B002B00D0F1
S113014098470E4B002B00D0984700200021040054
S11301500D000D48002802D00C48AFF3008003F0D6
S11301606DF82000290000F01FFD03F053F800BFD4
S11301700000080000000220000000000000000051
S1130180780000209800002000000000000000001B
S113019080B483B000AF03463960FB71FB79002B58
S11301A00DD0FB79012B0AD0FB79022B07D0FB7908
S11301B0032B04D0FB79042B01D0FB79052B0122FE
S11301C03B6802FA03F30749FA7918461346DB0041
S11301D013449B000B441433186000BF0C37BD4616
S11301E080BC70470060004080B483B000AF034619
S11301F03960FB71FB79002B0DD0FB79012B0AD000
S1130200FB79022B07D0FB79032B04D0FB79042B59
S113021001D0FB79052B01223B6802FA03F307495D
S1130220FA7918461346DB0013449B000B44103341
S1130230186000BF0C37BD4680BC704700600040AA
S113024080B483B000AF03463960FB71FB79002BA7
S11302500DD0FB79012B0AD0FB79022B07D0FB7957
S1130260032B04D0FB79042B01D0FB79052B01224D
S11302703B6802FA03F30749FA7918461346DB0090
S113028013449B000B441833186000BF0C37BD4661
S113029080BC70470060004080B582B000AF01218F
S11302A0104801F09BFA01210F4801F097FA00234E
S11302B07B600FE00D4A7B6812F833000B4A7B68C1
S11302C0DB00134459680023042201F0B1FF7B686A
S11302D001337B607B68012BECDD00231846083773
S11302E0BD4680BD4081040000D20400C03200003D
S11302F080B582B000AF78607B68002B10DB7B6830
S1130300012B0DDC094A7B6812F83300074A7B682D
S1130310DB0013445B681946FFF73AFF002301E052
S11303204FF0FF3318460837BD4680BDC032000089
S113033080B582B000AF78607B68002B10DB7B68EF
S1130340012B0DDC094A7B6812F83300074A7B68ED
S1130350DB0013445B681946FFF746FF002301E006
S11303604FF0FF3318460837BD4680BDC032000049
S113037080B582B000AF78607B68002B10DB7B68AF
S1130380012B0DDC094A7B6812F83300074A7B68AD
S1130390DB0013445B681946FFF752FF002301E0BA
S11303A04FF0FF3318460837BD4680BDC032000009
S11303B0064880470649074A074B9A42BEBF51F890
S11303C0040B42F8040BF8E7FFF7A8FE55050000FC
S11303D0483800000000002078000020FEE700BF3D
S11303E080B400AF034BDB6C1B0EDBB21846BD467A
S11303F080BC7047B081E00F80B582B000AF00F0E0
S11304001FF87860074B5B6803F00F037A6822FAE1
S113041003F37B60044A7B6813607B6818460837E3
S1130420BD4680BD00800C400800002080B400AFB1
S1130430024B1846BD4680BC704700BF006CDC020E
S113044080B582B000AF334BDB6A03F47053B3F56D
S1130450805F0AD0B3F5005F03D0B3F5006F08D016
S11304600BE02D4B1B687B6047E04FF400437B603F
S113047043E02A4B1B687B603FE0264BDB6803F4B8
S1130480E063B3F5007F1BD0B3F5007F05D8002BE4
S113049024D0B3F5807F16D02BE0B3F5806F09D05C
S11304A0B3F5A06F03D0B3F5407F06D021E01C4B19
S11304B07B6021E01B4B7B601EE01B4B7B601BE0E1
S11304C01A4B7B6018E0FFF78BFF0346122B02D90F
S11304D0174B7B6010E0174B7B600DE0FFF780FF4C
S11304E00346122B02D9144B7B6005E0134B7B604F
S11304F002E000237B6000BF00BF064B1B689B0B20
S113050003F0070301337A68B2FBF3F318460837A4
S1130510BD4680BD00800C40040000200000002087
S1130520003FAB01406F4001809FD500C0D8A700B9
S113053040B56400C0CF6A00804F120040420F00F3
S113054080B400AF024B1B681846BD4680BC7047A0
S11305500000002080B400AF034B044A9A6000BF3F
S1130560BD4680BC704700BF00ED00E00000000005
S113057080B400AF4FF400431846BD4680BC7047BA
S113058080B400AF4FF47A731846BD4680BC704700
S113059080B400AF024B1B681846BD4680BC704750
S11305A00400002080B483B000AF0346FB71FB79E4
S11305B0002B03D0054B01221A6602E0034B0022F4
S11305C01A6600BF0C37BD4680BC704700A00840C7
S11305D080B483B000AF786000BF054B5A6E7B686F
S11305E01340002BF9D100BF0C37BD4680BC7047C7
S11305F000A0084080B483B000AF7860054B9A6ACD
S11306007B68DB43034913408B6200BF0C37BD4654
S113061080BC704700A0084080B500AF0022284984
S1130620002002F025F800222549012002F020F8DC
S113063000222349022002F01BF800222049032053
S113064002F016F800221E49042002F011F80022DC
S11306501B49052002F00CF800221949062002F07B
S113066007F800221649072002F002F80022FF21B1
S1130670002002F0BBF80022FF21012002F0B6F8AE
S11306800022FF21022002F0B1F80022FF21032002
S113069002F0ACF80022FF21042002F0A7F80022A7
S11306A0FF21052002F0A2F80022FF21062002F01B
S11306B09DF80022FF21072002F098F800BF80BDBA
S11306C000F00FF080B500AF00222649072001F0AA
S11306D0CFFF00222449062001F0CAFF002222494C
S11306E0052001F0C5FF00221F49042001F0C0FFCE
S11306F000221D49032001F0BBFF00221A490220F9
S113070001F0B6FF00221849012001F0B1FF0022D8
S11307104FF02041002001F0ABFF00220721072009
S113072002F064F800220721062002F05FF800229C
S11307300721052002F05AF800220721042002F0C4
S113074055F800220721032002F050F80022072167
S1130750022002F04BF800220721012002F046F8A3
S113076000BF80BD00E00F5000E00FF080B582B004
S113077000AF0346FB710121244801F02FF8032147
S1130780234801F03DFA4021224800F0F5FE012003
S113079001F082FB0121204801F020F84FF0FF30E6
S11307A0FFF728FF1D4801F001FE0121082001F098
S11307B05BFE0121102001F057FE0121802001F091
S11307C053FE01214FF4807001F04EFE01214FF4DD
S11307D0007001F049FEFB79002B0DD04FF440204E
S11307E002F0C2F84FF4803001F01CFE0C4BDB6FBA
S11307F00B4A43F00803D367FFF70EFF4FF0FF30B7
S1130800FFF7E6FE00BF0837BD4680BDD0433E007B
S113081002001E0080002A0000362C0088350000EB
S113082000800C4080B58AB000AF7860786802F030
S113083031FD0346BB6100233B624FF0FF30FFF7FD
S1130840C7FE0120FFF7AEFEFFF73CFF00233B622B
S113085045E03A6ABB699A4203DA7B681B787B629B
S113086001E020237B627B6A203B7B62214A7B6A16
S113087032F81330FB820023FB6127E01E493A6AF9
S11308801346DB009B1A9B00CA18FB6913440E3302
S11308901B783B6118493A6A1346DB009B1A9B009C
S11308A0CA18FB6913441B78FB60FA8AFB6942FA95
S11308B003F303F00103002B05D0FB68396901221F
S11308C0184601F0F1FDFB690133FB61FB690D2B57
S11308D0D4DD7B6801337B603B6A01333B623B6A56
S11308E0062BB6DD0020FFF75DFE00BF2837BD46AE
S11308F080BD00BFD0340000D032000080B483B08B
S113090000AF0346FB7197F90730002B0BDBFB7933
S113091003F01F02064997F907305B09012000FA2A
S113092002F241F8232000BF0C37BD4680BC70475B
S113093000E100E080B500AFFFF75EFD00BF80BDC1
S113094080B483B000AF7860044A7B68C2F81C317D
S113095000BF0C37BD4680BC704700BF006000403C
S113096080B584B002AF396011461A460346FB7164
S11309700B46BB7113467B71BA79F8793B7C0193C2
S11309807B79009313463A68396801F0E7FB00BFAE
S11309900837BD4680BD000080B400AF034BDB6C5C
S11309A01B0EDBB21846BD4680BC7047B081E00F19
S11309B080B582B000AF0E4B01221A64FFF7ECFF42
S11309C00346FB713B1D184602F0E8FBFB790F2B35
S11309D00AD93B79022B07D9064B1B6823F0500335
S11309E0044A43F01003136000BF0837BD4680BDBE
S11309F000000C40C0800C4080B400AF034BDB69A6
S1130A009BB21846BD4680BC704700BF00C008407A
S1130A1080B500AFFFF78EFF0521112001F0F0F83B
S1130A200321164801F0ECF80121154801F0E8F81B
S1130A300121144800F0D2FE0121134800F0CEFE3B
S1130A400121124800F0CAFE0121114800F0C6FE3F
S1130A500121104800F0C2FE01210F4800F0BEFE43
S1130A6001210E4800F0BAFE01210D4800F0B6FE47
S1130A7001210B4800F080FD00BF80BD02001E0074
S1130A80030020004081040000D2040000362C0042
S1130A900092040000F20400D0433E00000A1E004D
S1130AA080062E0080B582B002AF0021032001F041
S1130AB01DFB0021022001F019FB00230422062162
S1130AC0032001F0B5FB002300220621022001F0DF
S1130AD0AFFB002301220921012001F0A9FB01231E
S1130AE000930123002209210120FFF739FF0B2085
S1130AF0FFF704FF002301220A21012001F098FBE3
S1130B0001230093012300220A210120FFF728FF7B
S1130B100120FFF7F3FE00BFBD4680BD80B500AFE6
S1130B200849094800F056F900230022002106482C
S1130B3000F004F900220A21034800F027F900BF5D
S1130B4080BD00BFAC3500000010004080B500AF90
S1130B5001210A4801F032FF094802F0ABF80948C4
S1130B6002F066F91421002001F0DCFF00210020CE
S1130B7002F070F802F048FA00BF80BDC4350000EE
S1130B80043600000438000080B500AF054B012294
S1130B909A6006224FF46411002002F0C7FA00BFE5
S1130BA080BD00BF00C00C4080B584B000AFFFF72B
S1130BB0FFFEFFF771FB01F0EBF9F860FFF728FF88
S1130BC0FFF770FFFFF7AAFFFFF7DEFFFFF7BEFF97
S1130BD00020FFF7CBFDF86801F0E9F9FFF70CFFFF
S1130BE0B860BB6803F04003002B14BF012300234B
S1130BF0FB71134B1B78DBB2012B10D1FB7983F013
S1130C000103DBB2002B03D00020FFF791FB02E0CD
S1130C100020FFF76DFB0B48FFF704FE0EE00A48C7
S1130C20FFF700FE094B1B78DBB2002B05D0002038
S1130C30FFF79EFB054B00221A7000BFCEE700BFF2
S1130C400C0000209C350000A43500009400002016
S1130C5080B500AF4FF40070FFF772FE094B1B78AC
S1130C60DBB2012B03D1074B00221A7007E0054BBE
S1130C701B78DBB2002B02D1024B01221A7000BF99
S1130C8080BD00BF0C00002080B500AF4FF4806031
S1130C90FFF756FE024B01221A7000BF80BD00BF51
S1130CA09400002080B485B000AFF860B9607A6029
S1130CB0FB681A68BB68DB431A407B681A43FB680D
S1130CC01A6000BF1437BD4680BC704780B483B03F
S1130CD000AF78607B68094A934202D07B68084A77
S1130CE0934200BF7B681B6823F001027B681A6093
S1130CF000BF0C37BD4680BC704700BF00100040E9
S1130D000014004080B483B000AF78607B68094A67
S1130D10934202D07B68084A934200BF7B681B68F9
S1130D2043F001027B681A6000BF0C37BD4680BCEB
S1130D30704700BF001000400014004080B584B02C
S1130D4000AFF860B96011461A460B46FB711346B2
S1130D50BB71FB680B4A934202D0FB680A4A934278
S1130D6000BFF868BB79DB001A460821FFF79AFF39
S1130D70BB681A02FB791A43FB68DA6100BF1037BB
S1130D80BD4680BD001000400014004080B483B014
S1130D9000AF78600B46FB701346BB707B680B4A50
S1130DA0934202D07B680A4A934200BF7B685B6827
S1130DB023F0F703FA7812011A43BB781A437B68CD
S1130DC05A6000BF0C37BD4680BC7047001000401D
S1130DD00014004080B582B000AF786039607B6851
S1130DE0224A934202D07B68214A934200BF78682A
S1130DF0FFF76CFF3B681B78DA073B685B789B075F
S1130E0013431A463B685B681B0613433A68127A1D
S1130E10520413433A68527A120413433A68927A9A
S1130E20120213433A68D27A120113433A68127BCE
S1130E3092001A437B681A603B685B7B1B041A466A
S1130E403B681B691B021A437B685A603B681B7D25
S1130E50002B03D07868FFF755FF02E07868FFF7AE
S1130E6035FF00BF0837BD4680BD00BF00100040FD
S1130E700014004080B487B000AFF860B9607A60B5
S1130E80FB6803F10473DA00BB6813449B007B61C5
S1130E907B697A681A6000BF1C37BD4680BC704706
S1130EA080B485B000AF786039607B6803F1047367
S1130EB0DA003B6813449B00FB60FB681B68184620
S1130EC01437BD4680BC704780B483B000AF7860EF
S1130ED001227B6802FA03F318460C37BD4680BC36
S1130EE0704780B485B000AF78607B68002B03D076
S1130EF07B68B3F5004F00BF7B68B3FA83F3DBB2C2
S1130F00C3F11F03FB60FB6818461437BD4680BC61
S1130F107047000080B400AF034BDB6C1B0EDBB2E8
S1130F201846BD4680BC7047B081E00F80B400AF66
S1130F30034BDB6C1B0CDBB21846BD4680BC704710
S1130F40B081E00F80B582B000AFFFF7EFFF03463A
S1130F504A2B04D0792B02D0482B23D024E0154B04
S1130F601B699BB21B029BB203F47C53FB80114BA5
S1130F709B691B091B0103F0F0039AB2FB8813431E
S1130F80FB800C4BDB691B0903F00F039AB2FB884F
S1130F901343FB80FB88B3F5017F01D3064B04E0C8
S1130FA0064B02E0054B00E0002318460837BD4617
S1130FB080BD00BFD0FF0FE000366E010048E8019D
S1130FC080B584B000AF78600123FB60FFF7BAFFFF
S1130FD002467B68934204D80023FB600023BB6075
S1130FE00BE0FFF7AFFF03465B007A689A4202D832
S1130FF00123BB6001E00223BB60FA681E2108489C
S1131000FFF738FF064B5B6823F48072BB681B0252
S1131010034913434B6000BF1037BD4680BD00BF7A
S113102000800C4080B582B000AF1E210448FFF759
S113103037FF78607B6818460837BD4680BD00BF1F
S113104000800C4080B582B000AF214B5B6903F493
S1131050E063B3F5007F1CD0B3F5007F05D8002B07
S113106025D0B3F5807F1FD02AE0B3F5C06F24D01C
S1131070B3F5E06F1ED0B3F5407F21D1FFF74AFFEF
S11310800346122B02D9134B7B601CE0124B7B608E
S113109019E0FFF73FFF0346122B02D90F4B7B6089
S11310A011E00F4B7B600EE00E4B7B600BE00E4BB0
S11310B07B6008E00D4B7B6005E00D4B7B6002E03C
S11310C000237B6000BF7B6818460837BD4680BD9F
S11310D000800C40804F120040420F0040B5640075
S11310E0C0CF6A00C0D8A700809FD500406F4001E0
S11310F0003FAB0180B582B000AF0D4800F0D2FCD8
S11311000346FB70FB78072B05D0092B07D1FFF7AB
S113111097F9786006E0FFF795FF786002E0002316
S11311207B6000BF7B6818460837BD4680BD00BFA2
S113113006000E0080B485B000AF78603960204BA3
S11311405B6803F00703FB60FB68012B01D9042BE8
S113115002D10023FB7202E00123FB7200BF7B6813
S1131160184A934207D9FB7A002B01D0052300E0EB
S11311700423FB6016E07B68124A93420BD87B6819
S1131180114A934207D9FB7A002B01D0032300E0D4
S11311900123FB6006E0FB7A002B01D0022300E070
S11311A00023FB60064B5B6823F007020449FB68DD
S11311B013434B6000BF1437BD4680BC704700BF6B
S11311C000000C400048E8010024F40080B582B01F
S11311D000AF0E4BDB6B002B14BF01230023FB710C
S11311E00A4B41F67132DA63FFF720F90346002116
S11311F01846FFF79FFFFB79002B02D0034B002218
S1131200DA6300BF0837BD4680BD00BF00000C4054
S113121080B584B000AF786039600C4BDB6B002B79
S113122014BF01230023FB73084B41F67132DA63C8
S113123039687868FFF77EFFFB7B002B02D0034BF5
S11312400022DA6300BF1037BD4680BD00000C40A9
S113125090B585B000AF78600023BB607B68344AEA
S1131260934203D0334A934200D000E000BF786831
S113127000F018FC0346FB607B682D4A934203D0C0
S11312802C4A934206D00CE02B4B9B6A03F00303D9
S1131290FB6006E0284B9B6A9B0803F00303FB609A
S11312A000BFFB68032B39D801A252F823F000BF1A
S11312B0E7120000C1120000C9120000D1120000A0
S11312C0FFF756F9B8602DE0FFF762F9B86029E03E
S11312D0FFF792F80446FFF7A5FE0346013324FA0C
S11312E003F3BB601EE00023BB607B68104A93429B
S11312F003D07B680F4A934213D10F4B9A6A7B68E1
S11313000B498B4201D1102300E0142322FA03F38A
S1131310002B06D0FFF734F9B86002E00023BB606D
S113132000E000BFBB6818461437BD4690BD00BF3F
S113133002001E000300200000800C4080B483B033
S113134000AF7860094B5B6D03F00103002B07D1FC
S113135000BF064B1A6D7B681340002BF9D100E0E7
S113136000BF0C37BD4680BC704700BF00800C40F6
S113137080B582B000AF104800F094FB0346FB70C8
S1131380FB78032B07D0092B09D0022B0BD1FFF7D5
S1131390FFF878600AE0FFF7EBF8786006E0FFF703
S11313A04FF8786002E000237B6000BF7B6818463A
S11313B00837BD4680BD00BF0723260080B400AFB8
S11313C000BFBD4680BC704780B400AF00BFBD46BF
S11313D080BC704790B585B000AF78607B681B090E
S11313E003F00F03BB60BB68013B0C2B00F2AE8023
S11313F001A252F823F000BF2D1400004D15000087
S11314004D1500003D1400004D1500004D15000061
S1131410511400007F1400000B1500004D1500004E
S11314204D1500004D150000651400004B4B1B6862
S11314309B0B03F007030133FB608AE0474B9B6877
S113144003F00F03FB60F868FFF73EFDF86080E0EF
S1131450424B5B6803F00F03FB60F868FFF734FD51
S1131460F86076E03D4B5B681B0A03F00103FB6008
S1131470FB6801331846FFF727FDF86069E07B68D5
S1131480374A934218D0364A934203D8354A934296
S113149007D036E0344A934219D0344A934226D0D6
S11314A02FE02E4B9B6E1B0903F00F03FB60F868C3
S11314B0FFF70AFDF86027E0284B9B6E1B0A03F038
S11314C00F03FB60F868FFF7FFFCF8601CE0234B98
S11314D09B6E1B0B03F003041020FFF702FD034671
S11314E02344FB60F868FFF7EFFCF8600CE01B4B4B
S11314F09B6E03F00303FB60F868FFF7E5FCF860FC
S113150002E00123FB6000BF23E07B68184A93429A
S113151003D0184A93420AD014E0104B1B6F03F017
S11315200303FB60F868FFF7CFFCF8600DE00B4B9A
S11315301B6F1B0903F00303FB60F868FFF7C4FC8F
S1131540F86002E00123FB6000BF02E00123FB60BE
S113155000BFFB6818461437BD4690BD00800C40A0
S1131560802616008016120080002A0080062E00B5
S113157090071A0090171C0090B585B000AF7860F2
S113158039607B681B0903F00F03FB60FB68013BB8
S11315900C2B00F20F8101A252F823F0D1150000A8
S11315A0B5170000B517000005160000B5170000B8
S11315B0B51700004D1600009F16000061170000CB
S11315C0B5170000B5170000B51700002D16000070
S11315D03B68002B02D03B68082B00BFFFF7F6FDE9
S11315E0774B1B6823F4E0323B68013B9B0374494F
S11315F013430B60FEF700FFB8600021B868FFF7E3
S113160007FED8E03B68002B03D03B68B3F5007FAE
S113161000BF3868FFF765FC3860694B9B6823F0AE
S11316200F0267493B6813438B60C4E03868FFF7D7
S113163058FC0346013B3B60614B5B6823F48072BA
S11316403B681B025E4913434B60B4E03B68002BCC
S113165003D03B68B3F5007F00BFFFF7B7FDFEF78B
S1131660CBFE02463B68B2FBF3F31846FFF7A8FC37
S11316703868FFF736FC3860514B5B6823F00F0283
S11316804F493B6813434B60FEF7B6FEB860002138
S1131690B868FFF7BDFDB868FFF792FC8BE07B6884
S11316A0484A93421ED0474A934203D8464A93423B
S11316B007D054E0454A934225D0454A93423ED050
S11316C04DE00420FFF73AFE3868FFF70AFC386063
S11316D03B4B9B6E23F0F0023B681B0138491343DC
S11316E08B663CE00420FFF729FE3868FFF7F9FB1E
S11316F03860334B9B6E23F470623B681B023049A5
S113170013438B662BE03B680F2B02D93B68802B7D
S113171000BF0420FFF712FE3868FFF7E2FB3860D1
S1131720274B9B6E23F440541020FFF7DAFB02464C
S11317303B689B1A1B03224A234393660FE0042051
S1131740FFF7FCFD3868FFF7CCFB38601C4B9B6E41
S113175023F003021A493B6813438B6600BF2AE057
S11317607B681C4A934203D01B4A934210D020E06A
S11317704020FFF7E3FD3868FFF7B3FB3860104BF8
S11317801B6F23F003020E493B6813430B6710E001
S11317904020FFF7D3FD3868FFF7A3FB3860084B00
S11317A01B6F23F030023B681B01054913430B6791
S11317B000BF00E000BF00BF1437BD4690BD00BFAE
S11317C000800C40802616008016120080002A003B
S11317D080062E0090071A0090171C0080B586B072
S11317E000AF78600B46FB7000233B617B681B0AEB
S11317F003F00F03013B092B44D801A252F823F054
S11318003B1800004118000029180000851800004A
S113181085180000471800005118000085180000C2
S1131820851800005B180000184B7B61FEF7E4FD8F
S113183003461846FFF7C4FB12E0154B7B610FE02B
S1131840144B7B610CE0144B7B6101233B6107E08B
S1131850124B7B6110233B6102E0114B7B6100BFA3
S11318607B681B0B03F01F03FB603B69002B02D05A
S11318703869FFF763FDFB781A46F9687869FFF762
S1131880F9FA00E000BF1837BD4680BD40800C4027
S113189008800C4044800C4058800C4060800C4010
S11318A078800C4090B585B000AF78607B6803F415
S11318B07813B3F5D01F00F0B480B3F5D01F1AD855
S11318C0B3F5602F00F0C880B3F5602F08D8B3F5E6
S11318D0003F45D0B3F5802F36D0002B30D0D2E076
S11318E0B3F5901F45D0B3F5B01F50D0B3F5801FAA
S11318F000F0B680C7E0B3F5181F00F0B580B3F56B
S1131900181F0BD8B3F5F01F2ED0B3F5001F00F04D
S11319108380B3F5E01F00F09180B4E0B3F5301F8D
S113192056D0B3F5301F03D8B3F5281F3DD0AAE035
S1131930B3F5381F63D0B3F5781F00F09980A2E0A7
S1131940FEF77EFDF860A1E0FEF77AFDF860524BE9
S11319509B6803F00F03FA6822FA03F3FB6095E037
S1131960FEF74AFDF86091E04C48FFF771FCF8601F
S11319708CE04A48FFF76CFCF860474B9B6E1B09F0
S113198003F00F03FA6822FA03F3FB607EE0434896
S1131990FFF75EFCF860404B9B6E1B0A03F00F03DD
S11319A0FA6822FA03F3FB6070E03C48FFF750FC4E
S11319B0F860394B9B6E1B0B03F003041020FFF7F8
S11319C090FA03462344FA6822FA03F3FB605DE0CD
S11319D03248FFF73DFCF8602F4B9B6E1B0B03F066
S11319E00303FA6822FA03F3FB602B4BDB6F03F06B
S11319F007030133FA68B2FBF3F3FB6046E02748C0
S1131A00FFF726FCF860244B9B6E03F00303FA688F
S1131A1022FA03F3FB6039E02148FFF719FCF86070
S1131A2034E01F48FFF714FCF8601B4B1B6F03F0F6
S1131A300303FA6822FA03F3FB6027E01848FFF770
S1131A4007FCF860144B1B6F1B0903F00303FA68CF
S1131A5022FA03F3FB6019E0FFF74CFBF86015E092
S1131A60FFF7F0FAF86011E0FFF782FCF8600DE090
S1131A70FEF7C2FC04467868FFF7ACFC0346B4FBEF
S1131A80F3F3FB6002E00023FB6000BFFB68184631
S1131A901437BD4690BD00BF00800C4002001E00FC
S1131AA00300200080B485B000AF78600123FB738D
S1131AB07B6803F00F03BB60BB68013B062B00F29D
S1131AC0938001A252F823F0E51A00001B1B0000CA
S1131AD0571B0000E91B0000E91B0000931B0000DA
S1131AE0B51B0000454BDB6A03F47053B3F5805F0C
S1131AF009D0B3F5005F03D0B3F5006F06D008E05A
S1131B000223FB7308E00323FB7305E00423FB7348
S1131B1002E00523FB7300BF69E0384B9B6A03F0C6
S1131B200303022B06D0032B07D0012B08D1032378
S1131B30FB730FE00223FB730CE00623FB7309E045
S1131B402E4B9B6A03F48033002B02D00A23FB73D1
S1131B5000E000BF4BE0294B9B6A03F00C03082B09
S1131B6006D00C2B07D0042B08D10323FB730FE002
S1131B700223FB730CE00623FB7309E01F4B9B6AF3
S1131B8003F48013002B02D00A23FB7300E000BF90
S1131B902DE01A4B1B6803F08053002B03D0B3F1E4
S1131BA0805F03D023E00723FB7302E00923FB7368
S1131BB000BF1CE0114BDB6A03F46033B3F5803FD4
S1131BC008D0B3F5003F08D0B3F5004F08D109237E
S1131BD0FB7308E00223FB7305E00323FB7302E0BD
S1131BE00123FB7300BF02E00023FB7300BFFB7BF8
S1131BF018461437BD4680BC704700BF00800C40B7
S1131C0080B588B000AF78600B46FB700323FB619E
S1131C100323FB7600233B617B6803F00F03FB6027
S1131C20FB68013B062B00F2288101A252F823F045
S1131C304D1C0000231D0000231D00007B1E00001E
S1131C407B1E0000E91D0000131E0000FB78023B10
S1131C50082B00F2148101A252F823F0811C000029
S1131C608B1C0000951C0000D71C00007F1E000088
S1131C707F1E00007F1E00007F1E00007F1E0000EC
S1131C800423FB610023FB7631E00323FB61012382
S1131C90FB762CE00223FB610223FB76FFF752F96B
S1131CA0034601331846FFF78BF9FEF749FC024659
S1131CB0764B9A4206D9764B1B68754A43F060030B
S1131CC0136014E0724B1B6823F06003704A43F006
S1131CD0200313600BE00123FB610323FB76FFF772
S1131CE031F9034601331846FFF76AF900BFFB7E5A
S1131CF001220121184600F0EDF8FFF767FAFFF71B
S1131D005DFB634AFB695362FEF776FBB860B86813
S1131D10FFF756F90021B868FFF77AFAFFF754FB8A
S1131D20B0E0FB78013B092B00F2AB8001A252F832
S1131D3023F000BF5D1D0000631D0000731D000043
S1131D40831E0000831E0000831D0000831E00000C
S1131D50831E0000831E00009F1D000000237B6182
S1131D6022E001220121002000F0B4F802237B616B
S1131D701AE001220121012000F0ACF801237B616B
S1131D8012E0FEF739FBB860B868FFF719F90122D1
S1131D9004214048FFF76EF803237B6104E000232D
S1131DA07B6101233B6100BFFB68022B0DD1384BE3
S1131DB09B6A23F4803323F003037A691A433B6953
S1131DC01B04334913438B625CE0314B9B6A23F45D
S1131DD0801323F00C037A6992001A433B691B05B4
S1131DE02B4913438B624DE0FB78072B02D0092B60
S1131DF007D047E0264B1B68254A23F08053136025
S1131E0006E0234B1B68224A43F08053136000BF53
S1131E1038E0FB78032B14D0092B22D0022B00D0FE
S1131E2030E001220121002000F054F8184B402238
S1131E305A6200BF164BDB6A03F48033002BF9D0DF
S1131E401AE001220121012000F044F8104B602225
S1131E505A6200BF0E4BDB6A03F40033002BF9D047
S1131E600AE00B4B20225A6200BF094BDB6A03F4E1
S1131E700043002BF9D000BF04E000BF02E000BF24
S1131E8000E000BF2037BD4680BD00BF0048E80128
S1131E9000800C4040800C4080B483B000AF786078
S1131EA00B4B9B6D03F00803002B0CD17B6803F0F4
S1131EB007037B60064BDB6F23F0070204497B6852
S1131EC01343CB6700E000BF0C37BD4680BC7047AE
S1131ED000800C4080B586B000AF0346FB710B4612
S1131EE0BB7113467B71FB79042B48D801A252F8CD
S1131EF023F000BF411F0000331F0000171F000024
S1131F00091F0000251F000001233B610223FB6021
S1131F1001237B611DE004233B610823FB60032351
S1131F207B6116E010233B612023FB6005237B616A
S1131F300FE040233B618023FB6007237B6108E0C3
S1131F404FF480733B614FF40073FB6009237B61A2
S1131F5000BFBB79002B0ED00B4A3B6913627B791F
S1131F60002B0DD000BF79690848FEF799FF03469E
S1131F70002BF8D004E0044AFB68136200E000BFC1
S1131F801837BD4680BD00BF00800C402C800C403B
S1131F9080B483B000AFEFF310833B603B687B6099
S1131FA072B67B6818460C37BD4680BC704780B457
S1131FB083B000AF78607B68002B00D162B600BFAD
S1131FC00C37BD4680BC704780B487B000AFF86062
S1131FD0B9607A60FB6803F10473DA00BB681344E8
S1131FE09B007B617B697A681A6000BF1C37BD4621
S1131FF080BC704780B485B000AFF860B9607A6087
S1132000FB681A68BB68DB431A407B681A43FB68A9
S11320101A6000BF1437BD4680BC704780B483B0DB
S113202000AF7860044A7B68C2F81C3100BF0C37EB
S1132030BD4680BC704700BF0060004080B483B0E0
S113204000AF03463960FB71FB79002B0DD0FB799F
S1132050012B0AD0FB79022B07D0FB79032B04D088
S1132060FB79042B01D0FB79052B01223B6802FA92
S113207003F30749FA7918461346DB0013449B001F
S11320800B441433186000BF0C37BD4680BC704746
S11320900060004080B483B000AF03463960FB7138
S11320A0FB79002B0DD0FB79012B0AD0FB79022B95
S11320B007D0FB79032B04D0FB79042B01D0FB79E7
S11320C0052B01223B6802FA03F30749FA79184603
S11320D01346DB0013449B000B441033186000BF0D
S11320E00C37BD4680BC70470060004080B483B0AC
S11320F000AF03460A46FB711346BB71FB79002B04
S11321000ED0FB79012B0BD0FB79022B08D0FB7985
S1132110032B05D0FB79042B02D0FB79052B02D1CC
S1132120BB79032B00BF0C49FA791346DB00134437
S11321309B000B441B6823F00301BB790648FA7922
S113214019431346DB0013449B000344196000BF8A
S11321500C37BD4680BC70470060004080B586B037
S113216000AFB9607A601A460346FB731346BB732B
S113217000237B61FB7B002B0DD0FB7B012B0AD062
S1132180FB7B022B07D0FB7B032B04D0FB7B042BB4
S113219001D0FB7B052B7B68072B0ED87B689B004B
S11321A0072202FA03F1FA7B7B689B0002FA03F32D
S11321B01A461A48FFF71EFF10E07B68083B7B6154
S11321C07B699B00072202FA03F1FA7B7B699B007F
S11321D002FA03F31A461248FFF70CFFBB7B1A46B8
S11321E079681048FFF7F0FE97F820301A467968AE
S11321F00D48FFF7E9FE01227B6802FA03F3184653
S1132200FFF70CFF97F824301A4679680748FFF760
S1132210DBFE00BF1837BD4680BD00BF0061004033
S113222004610040086100400C61004010610040FE
S113223080B584B000AFB9607B600346FB7313467E
S1132240BB73FB7B002B0DD0FB7B012B0AD0FB7BEC
S1132250022B07D0FB7B032B04D0FB7B042B01D088
S1132260FB7B052BBB7B002B0DD07B68002B05D0A3
S1132270FB7BB9681846FFF70DFF04E0FB7BB968E8
S11322801846FFF7DBFEBB68072B20D82D49FA7BE5
S11322901346DB0013449B000B4404331A68BB68E9
S11322A09B000F2101FA03F3DB431340B97BBA68A7
S11322B0920001FA02F211462248FA7B19431346AE
S11322C0DB0013449B0003440433196025E01D49DB
S11322D0FA7B1346DB0013449B000B4408331A6853
S11322E0BB6803F18043083B9B000F2101FA03F311
S11322F0DB4302EA0301BA7BBB6803F18043083B7A
S11323009B0002FA03F30F48FA7B19431346DB00E0
S113231013449B00034408331960BB7B002B0DD18D
S11323207B68002B05D0FB7BB9681846FFF7B2FE2B
S113233004E0FB7BB9681846FFF780FE00BF103746
S1132340BD4680BD0060004080B483B000AF03464A
S1132350FB71FB79002B06D0084B1B68074A43F03E
S11323600103136005E0054B1B68044A23F00103D5
S1132370136000BF0C37BD4680BC704700A0084006
S113238080B487B000AFF860B9607A60FB6803F18D
S11323900473DA00BB6813449B007B617B697A6831
S11323A01A6000BF1C37BD4680BC704780B584B03E
S11323B000AF78601A4B5B68FB600020FFF7C4FF36
S11323C0FB6823F4830323F01F03FB607B685B68D3
S11323D0FA681343FB607B681B7A1A46FB68134355
S11323E0FB607B685B7A1A46FB681343FB607B687F
S11323F0DB68FA681343FB607B681B8A1A46FB6838
S11324001343FB60064AFB6853607B681B78002B10
S113241002D00120FFF798FF00BF1037BD4680BDF2
S113242000A0084080B485B000AF78600D4B5B68B5
S1132430FB60FB6823F48033FB607B68002B08D0CF
S1132440B3F5803F00D005E0FB6843F48033FB60C4
S113245000E000BF034AFB68536000BF1437BD4669
S113246080BC704700A0084080B483B000AF03462E
S11324700A46FB8013467B717B79002B06D0094BFF
S11324809A68FB88074913438B6006E0054B9A68FA
S1132490FB88DB43034913408B6000BF0C37BD4608
S11324A080BC704700A0084080B584B000AFF860DD
S11324B0B9601346FB71FB68072B00F2B38001A2DD
S11324C052F823F0E52400000D2500003525000016
S11324D05D25000085250000AD250000D525000000
S11324E0FD250000BB681F2B06DCBB68FA79194682
S11324F04F48FFF745FF96E0BB68203BBB60BB68D5
S1132500FA7919464B48FFF73BFF8CE0BB681F2B59
S113251006DCBB68FA7919464748FFF731FF82E0C9
S1132520BB68203BBB60BB68FA7919464348FFF798
S113253027FF78E0BB681F2B06DCBB68FA791946D5
S11325403F48FFF71DFF6EE0BB68203BBB60BB68E4
S1132550FA7919463B48FFF713FF64E0BB681F2B69
S113256006DCBB68FA7919463748FFF709FF5AE0D9
S1132570BB68203BBB60BB68FA7919463348FFF758
S1132580FFFE50E0BB681F2B06DCBB68FA791946D6
S11325902F48FFF7F5FE46E0BB68203BBB60BB68F5
S11325A0FA7919462B48FFF7EBFE3CE0BB681F2B7A
S11325B006DCBB68FA7919462748FFF7E1FE32E0EA
S11325C0BB68203BBB60BB68FA7919462348FFF718
S11325D0D7FE28E0BB681F2B06DCBB68FA791946D6
S11325E01F48FFF7CDFE1EE0BB68203BBB60BB6805
S11325F0FA7919461B48FFF7C3FE14E0BB681F2B8A
S113260006DCBB68FA7919461748FFF7B9FE0AE0F9
S1132610BB68203BBB60BB68FA7919461348FFF7D7
S1132620AFFE00E000BF00BF1037BD4680BD00BF55
S113263040A0084050A0084044A0084054A00840CE
S113264048A0084058A008404CA008405CA008409E
S1132650CCA00840B4A00840D0A00840B8A00840CE
S1132660D4A00840BCA00840D8A00840C0A008409E
S113267080B487B000AFF860B9607A60FB68072B5C
S113268000F2AC8001A252F823F000BFAD26000096
S1132690D1260000F5260000192700003D27000080
S11326A0652700008D270000B52700004E4B1B6CEA
S11326B07B61BB68DB437A6913407B61BA687B68E2
S11326C013407A6913437B61474A7B69136486E04C
S11326D0454B5B6C7B61BB68DB437A6913407B6170
S11326E0BA687B6813407A6913437B613E4A7B690D
S11326F0536474E03C4B9B6C7B61BB68DB437A693D
S113270013407B61BA687B6813407A6913437B6129
S1132710354A7B69936462E0334BDB6C7B61BB6855
S1132720DB437A6913407B61BA687B6813407A693A
S113273013437B612C4A7B69D36450E02A4BD3F862
S1132740CC307B61BB68DB437A6913407B61BA6838
S11327507B6813407A6913437B61234A7B69C2F81F
S1132760CC303CE0204BD3F8D0307B61BB68DB43FA
S11327707A6913407B61BA687B6813407A691343B2
S11327807B61194A7B69C2F8D03028E0164BD3F834
S1132790D4307B61BB68DB437A6913407B61BA68E0
S11327A07B6813407A6913437B610F4A7B69C2F8E3
S11327B0D43014E00C4BD3F8D8307B61BB68DB43D6
S11327C07A6913407B61BA687B6813407A69134362
S11327D07B61054A7B69C2F8D83000E000BF00BFC6
S11327E01C37BD4680BC704700A0084080B487B049
S11327F000AFF860B9607A60FB68072B00F2AC8028
S113280001A252F823F000BF292800004D2800003F
S11328107128000095280000B9280000E128000074
S113282009290000312900004E4B1B6D7B61BB68F8
S1132830DB437A6913407B61BA687B6813407A6929
S113284013437B61474A7B69136586E0454B5B6DA7
S11328507B61BB68DB437A6913407B61BA687B6840
S113286013407A6913437B613E4A7B69536574E084
S11328703C4B9B6D7B61BB68DB437A6913407B6196
S1132880BA687B6813407A6913437B61354A7B6974
S1132890936562E0334BDB6D7B61BB68DB437A6934
S11328A013407B61BA687B6813407A6913437B6188
S11328B02C4A7B69D36550E02A4BD3F8B4307B6152
S11328C0BB68DB437A6913407B61BA687B68134059
S11328D07A6913437B61234A7B69C2F8B4303CE0D4
S11328E0204BD3F8B8307B61BB68DB437A69134073
S11328F07B61BA687B6813407A6913437B61194A28
S11329007B69C2F8B83028E0164BD3F8BC307B6141
S1132910BB68DB437A6913407B61BA687B68134008
S11329207A6913437B610F4A7B69C2F8BC3014E0B7
S11329300C4BD3F8C0307B61BB68DB437A6913402E
S11329407B61BA687B6813407A6913437B61054AEB
S11329507B69C2F8C03000E000BF00BF1C37BD4631
S113296080BC704700A0084080B483B000AF78609A
S1132970064B5B6823F4E01204497B6813434B6005
S113298000BF0C37BD4680BC704700BF00A00840A4
S113299080B487B000AFF860B9607A60FB6803F177
S11329A00473DA00BB6813449B007B617B697A681B
S11329B01A6000BF1C37BD4680BC704780B582B02A
S11329C000AF78600B46FB70FB78002B01D000F061
S11329D035FB7B681B7D184600F022F97B685B7829
S11329E09B007A6892781A437B689B681A437B68D9
S11329F0DB681A437B68DB785B021A437B681B79CC
S1132A009B021A437B685B795B031A437B689B795F
S1132A105B041A437B68DB791B041A437B685B7C89
S1132A209B053F4913430B607B681B7800211846C4
S1132A3000F0D6F87B681B7E1A467B68DB7E5B0061
S1132A401A437B685B7E9B001A437B689B7E9B01D9
S1132A501A437B681B7F1B011A437B685B7F1B0245
S1132A601A437B689B7F9B021A437B681B6A1A4349
S1132A707B6893F824301B051A437B6893F8253050
S1132A809B051A437B689B6A254913438B607B68CB
S1132A909B8D1A467B6893F83B309B021A437B68F4
S1132AA093F83C309B031A437B6893F83D309B04B6
S1132AB01A437B6893F83E309B051A437B6893F86E
S1132AC034305B001A437B6893F835309B001A431B
S1132AD07B6893F83630DB001A437B6893F8373011
S1132AE01B011A437B6893F838305B011A437B68F7
S1132AF093F839309B011A437B6893F83A30DB0131
S1132B0007491343CB607B681B6B184600F06CFAD3
S1132B107B681A7C024B1A6100BF0837BD4680BD32
S1132B2000C0084080B588B000AF786039600023E9
S1132B30FB610123BB613F237B617B68002B03D1D5
S1132B402548FEF7AFFE78603B68002B0CD03A684E
S1132B507B689A4200BF07E0FB690133FB610122F5
S1132B60FB6902FA03F3BB613B68BA6902FB03F336
S1132B707A68B2FBF3F27B6901339A4202D9FB69AA
S1132B80062BE9D93B68BA6902FB03F37A68B2FB06
S1132B90F3F3013B7B61114B5B6823F47F2323F444
S1132BA0E0633B61FB691A027B691B0313433A69C7
S1132BB013433B61094A3B6953607B690133BA693A
S1132BC002FB03F37A68B2FBF3F3FB60FB6818467D
S1132BD02037BD4680BD00BF80062E0000C00840DF
S1132BE080B584B000AF03460A46FB711346BB713F
S1132BF00A4B1B6823F00303FB60FB79FA68134359
S1132C00FB60064AFB681360BB79002B01D000F01F
S1132C10FBF900BF1037BD4680BD00BF00C00840AF
S1132C2080B485B000AF0346FB71094B5B6823F4A5
S1132C304003FB60FB799B05FA681343FB60044A7D
S1132C40FB68536000BF1437BD4680BC704700BFAB
S1132C5000C0084080B485B000AF03460A46FB714B
S1132C601346BB71FB79002B0FD0012B00D01AE067
S1132C700F4B5B6823F00303FB60BB79FA681343D3
S1132C80FB600B4AFB6853600DE0094B5B6823F063
S1132C907003FB60BB791B01FA681343FB60044AB1
S1132CA0FB68536000BF00BF1437BD4680BC70474B
S1132CB000C0084080B584B000AF78600023FB609A
S1132CC00AE0FB685B017A681344F968184600F06F
S1132CD00BF8FB680133FB60FB680F2BF1D900BFD5
S1132CE01037BD4680BD000080B584B000AF786069
S1132CF039607B685B68B3F5C03F7B681B7A032B44
S1132D000AD13B680C2B07D03B680D2B04D03B68E1
S1132D100E2B01D03B680F2B00BF7B681B7A032B63
S1132D200AD13B68002B07D03B68012B04D03B68D9
S1132D30022B01D03B68032B00BF394B9A6B3B68D5
S1132D405B00032101FA03F3DB431340FB607B6860
S1132D501B7A1A463B685B0002FA03F3FA681343D2
S1132D60FB602F4AFB6893633B68D8B27B68D97BCE
S1132D707B681A7C7B685B8A00F0D4F87B685B7B99
S1132D805A047B689B7B9B0413437A68D28A13435F
S1132D907A68128B1A437B685B681A437B685B7A98
S1132DA0DB041F491A433B682C331B010B440433D7
S1132DB01A607B68DA697B689B7A5B041A437B68D8
S1132DC01B7B9B041A437B68DB7ADB0414491A439C
S1132DD03B681B010B4403F532731A603B68D8B29D
S1132DE07B68998A7B685B8B1A4600F0BFF87B6826
S1132DF09B781A4639680B48FFF7CAFD7B685B78F5
S1132E001A4639680848FFF7C3FD7B681B781A46E1
S1132E1039680648FFF7BCFD00BF1037BD4680BDCA
S1132E2000C008404CC0084054C0084018C00840C6
S1132E3080B584B000AF78607B681B781A460B219C
S1132E403548FFF7A5FD7B681B78002B02D0012BCA
S1132E5047D05DE00023FB603FE0FB6803F1100016
S1132E607968FA6813465B0013440B4401331B78FA
S1132E701A4601462948FFF78BFD274BDA6BFB689E
S1132E805B00032101FA03F3DB431340BB60796861
S1132E90FA6813465B0013440B4402331B781A464A
S1132EA0FB685B0002FA03F3BA681343BB601A4A77
S1132EB0BB68D363FB6803F110007968FA681346B2
S1132EC05B0013440B4403331B781A460146144831
S1132ED0FFF75EFDFB680133FB60FB68072BBCD981
S1132EE016E00023FB600FE07968FA6813465B0084
S1132EF013440B4401331B781A46F9680748FFF75B
S1132F0047FDFB680133FB60FB680F2BECD900BF66
S1132F1000BF1037BD4680BD00C0084054C0084003
S1132F203CC0084090B482B000AF04460846114645
S1132F301A462346FB710346BB710B467B7113464D
S1132F407B80BA797B799B0142EA03017B885A032F
S1132F500548FB790A432C331B0103441A6000BF64
S1132F600837BD4690BC704700C0084080B485B0A7
S1132F7000AF0346FB710B46BB8013467B80194AA6
S1132F80FB792C331B01134404331B6823F47F6344
S1132F9023F00F03FB60BB88FA681343FB60114AFC
S1132FA0FB792C331B0113440433FA681A600D4A6D
S1132FB0FB791B01134403F532731B681B0C1B04C0
S1132FC0FB607B88FA681343FB60064AFB791B01AC
S1132FD0134403F53273FA681A6000BF1437BD4610
S1132FE080BC704700C0084080B483B000AF7860F4
S1132FF0044A7B6803F00F03136300BF0C37BD461C
S113300080BC704700C0084080B400AF00BF0A4BCA
S11330101B6D03F02003002BF9D1074B01225A61E9
S113302000BF054B1B6D03F02003002BF9D100BF3B
S1133030BD4680BC704700BF00C0084080B483B068
S113304000AF384B0022DA64364B374A5A64354BAA
S1133050DB68344A43F00103D36000BF314B1B6D7E
S113306003F02003002BF9D12E4B0A225A612D4B79
S113307000221A602B4B00229A602A4B0022DA604D
S1133080284B00221A61274B00229A61254B00220B
S11330909A63244B0022DA63224B00225A650023F0
S11330A07B6019E01F4A7B682C331B011344002208
S11330B01A601C4A7B682C331B011344043300221E
S11330C01A60184A7B681B01134403F5327300220B
S11330D01A607B6801337B607B680F2BE2D9002385
S11330E07B600FE00F4A7B684033002142F83310C5
S11330F00C4A7B684033DB00134400225A607B682F
S113310001337B607B680F2BECD900BF054B1B6D33
S113311003F02003002BF9D100BF0C37BD4680BC5F
S1133120704700BF00C00840FFFF7F0080B584B037
S113313000AFF860B9607A60BA687B6813431A46D6
S11331400021F86800F004F800BF1037BD4680BDC8
S113315080B487B000AFF8600B467A60FB727A687F
S11331600C4B13407B61FB7A002B08D10A497B6925
S113317043F08052FB68043341F8232005E00649FC
S1133180FB6804337A6941F8232000BF1C37BD462D
S113319080BC704707003F0000C00C4080B485B07D
S11331A000AF78601A4B5B69DBB29B00DBB203F0C3
S11331B03C03FB73164B1B699B09DBB203F003034F
S11331C0DAB2FB7B1343FB737B68FA7B9A70104B78
S11331D01B69DBB203F03F03DAB27B685A700C4B15
S11331E09B691B09DBB21B01FB73094BDB691B09E0
S11331F0DBB203F00F03DAB2FB7B1343FB737B6890
S1133200FA7B1A7000BF1437BD4680BC704700BFFC
S1133210D0FF0FE008B5074B044613B10021AFF30C
S11332200080054B1868836A03B19847204600F074
S113323039F800BF000000003838000070B50025E0
S11332400C4E0D4CA41BA410A54209D100F02CF87F
S113325000250A4E0A4CA41BA410A54205D170BD3A
S113326056F8253098470135EEE756F8253098474B
S11332700135F2E77000002070000020700000208B
S11332807400002003460244934200D1704703F8BF
S1133290011BF9E7034613F8012B002AFBD1181A86
S11332A001387047FEE700BFF8B500BFF8BC08BCA2
S11332B09E467047F8B500BFF8BC08BC9E467047F0
S11332C004000000020000000400000003000000ED
S11332D001010507070304020302040605060D0E97
S11332E00E0E0D0D0D0D0E0E0E0E0D0D010105072A
S11332F0070304020302040605060F1010100F0F43
S11333000F0F101010100F0F01010507070304021F
S113331003020406050611121212111111111212E0
S11333201212111101010507070304020302040626
S11333300506131C1C1C131313131C1C1C1C131335
S113334000010507060203010302040604051D1E0D
S11333501E1E1D1D1D1D1E1E1E1E1D1D00010507FA
S1133360060203010302040604051F2020201F1F78
S11333701F1F202020201F1F01010507070304022F
S113338003020406050621222222212121212222D0
S113339022222121070502010306042323232323D8
S11333A023230705020103060424242424242424BB
S11333B007050201030604252525252525250705DE
S11333C002010306042626262626262600010702D5
S11333D006272727272700000000000000001312FB
S11333E011100F0E0D0C00000000212524260101F0
S11333F00304040203020D0E0D0D0E0D0E0E010149
S11334000304040203020F100F0F100F1010010128
S11334100304040203021112111112111212010108
S1133420030404020302131C13131C131C1C0001C9
S11334300203040103021D1E1D1D1E1D1E1E00018C
S11334400203040103021F201F1F201F202001016B
S1133450030404020302212221212221222205073E
S11334600704040605060E0E0D0D0E0E0D0D0507C0
S113347007040406050610100F0F10100F0F0507A0
S11334800704040605061212111112121111050780
S11334900704040605061C1C13131C1C1313050740
S11334A00603040604051E1E1D1D1E1E1D1D050704
S11334B006030406040520201F1F20201F1F0507E4
S11334C007040406050622222121222221210000CC
S11334D0000000118002000000000206000020002D
S11334E039000F00000040150020400400100022A5
S11334F03F0006005B044F0466046D047D0407006E
S11335007F046F0400000000000A00008020000017
S1133510FFFF7704790A3900B020790071007D0437
S1133520760406000E00700A3800B602B6083F00A2
S113353073043F08730C6D0401113E0030223628D9
S1133540802A6E040922390080080F000100080057
S1133550000158107C0458005E04582071040C0CBF
S1133560740404000E00700C3800541454045C04F9
S1133570730467045004080C78001C0010201428FD
S1133580802A0C08482000000100000003004000CD
S11335900C00000000000000000000004155544FE2
S11335A0000000004D414E55414C00000001000058
S11335B00000000000000700000000000000000000
S11335C000000000000000000000000100000000F6
S11335D000000000000000000000000000000000E7
S11335E000000000000004000202000000000000CF
S11335F000000000000000000001000000000100C5
S113360001020300000000000000000000000000B0
S113361000000000000000000000000000000000A6
S11336200000000000000000000000000000000096
S11336300000000000000000000000000000000086
S11336400000000000000000000000000000000076
S11336500000000000000000000000000000000066
S11336600000000000000000000000000000000056
S11336700000000000000000000000000000000046
S11336800000000000000000000000000000000036
S11336900000000000000000000000000000000026
S11336A00000000000000000000000000000000016
S11336B00000000000000000000000000000000006
S11336C00000000001000000008000000001000074
S11336D0010000010100000038000010006000003B
S11336E000000000000000000000000000000000D6
S11336F000000000000000000000000000000000C6
S113370000000000000000000000000000000000B5
S113371000000000000000000000000000000000A5
S11337200000000000000000000000000000000095
S11337300000000000000000000000000000000085
S11337400000000000000000000000000000000075
S11337500000000000000000000000000000000065
S11337600000000000000000000000000000000055
S11337700000000000000000000000000000000045
S11337800000000000000000000000000000000035
S11337900000000000000000000000000000000025
S11337A00000000000000000000000000000000015
S11337B00000000000000000000000000000000005
S11337C000000000000000000000000000000000F5
S11337D000000000000000000000000000000000E5
S11337E000000000000000000000000000000000D5
S11337F000000000000000000000000000000000C5
S113380000000000000100010000000000000000B2
S113381000000000000000000000000000000000A4
S11338200000000000000000000000000000000094
S11338300000000000000000100000200000000054
S10B3840DCC8FF7F0100000059
S1133848006CDC0200800000809FD50001000000AD
S1133858000000000000000000000000000000005C
S1133868000000000000000000000000000000004C
S1133878000000000000000000000000000000003C
S1133888000000000000000000000000000000002C
S1133898000000000000000000000000000000001C
S11338A8000000000000000000000000000000000C
S10B38B801010000DD00000025
S90303B148
